:020000041000EA
:1000000000B5324B212058609868022188439860DF
:10001000D860186158612E4B002199600221596106
:100020000121F02299502B49196001219960352056
:1000300000F044F80222904214D00621196600F024
:1000400034F8196E01211966002018661A6600F04E
:100050002CF8196E196E196E052000F02FF8012189
:100060000842F9D1002199601B49196000215960AB
:100070001A491B48016001219960EB211966A021F2
:10008000196600F012F800219960164914480160C1
:100090000121996001BC002800D000471248134993
:1000A000086003C880F30888084703B5996A0420EC
:1000B0000142FBD001200142F8D103BD02B5186610
:1000C0001866FFF7F2FF186E186E02BD00000240BE
:1000D000000000180000070000035F00212200005C
:1000E000F4000018222000A00001001008ED00E03C
:1000F00000000000000000000000000074B24E7A12
:1001000000200420F7010010C3010010C5010010F9
:10011000C1010010C1010010C1010010C101001097
:10012000C1010010C1010010C1010010C701001081
:10013000C1010010C1010010C9010010CB01001065
:10014000CD010010CD010010CD010010CD01001037
:10015000CD010010CD010010CD010010CD01001027
:10016000CD010010CD010010CD010010CD01001017
:10017000CD010010CD010010CD010010CD01001007
:10018000CD010010CD010010CD010010CD010010F7
:10019000CD010010CD010010CD010010CD010010E7
:1001A000CD010010CD010010CD010010CD010010D7
:1001B000CD010010CD010010CD010010CD010010C7
:1001C00000BE00BE00BE00BE00BE00BEEFF3058054
:1001D000103800BEF2EB8871345904105C590410D9
:1001E0003402001090A31AE700201F49086006C8D7
:1001F00081F3088810471D48006800282FD10DA4FE
:100200000ECC002902D000F012F8F9E71849194A7B
:10021000002000E001C19142FCD1174988471749ED
:1002200088471749884700BEFDE701C901C29A42C5
:10023000FBD370475C590410C00000201814002044
:10024000B46C04100000042000000420B46C0410FE
:10025000001004200010042000000000704709482E
:1002600003F094FC0047000008ED00E0000000D01F
:1002700018140020402F002085280010DD020010F7
:10028000452800105756000006005250ABB360538B
:1002900068C5001006005250861C030278C5001085
:1002A000060052505422A29D88C5001005005250ED
:1002B000DE65F468B46C0410F8B5C046044B10B5A4
:1002C000002B03D00349044800E000BF10BDC04626
:1002D00000000000B42C002080B80010F0B5C64625
:1002E00000B588B000AF380000F01CF904F0EAFA5D
:1002F00006F06EFF1D480AF0E9FA06E00121002031
:1003000006F032FF1A4804F0A1FAD0231B061B6D39
:10031000DB07FAD50AF06EFA0028EFD00128F4D1F5
:100320000AF068FA0500E846C31DDB08DB006A46F0
:10033000D31A9D466E4602000021684604F0CCF8B0
:10034000002403E00AF056FA30550134AC42F9D3E8
:10035000300004F07BFA2A003100380000F0E8F8A1
:10036000300004F0A3FAC546CFE7C0469D04001054
:1003700080B8001010B50E4880225200002104F011
:10038000ABF804F0A7FA0400431C0FD004F02AFADB
:100390000D2C0BD0202C09D00A2CF2D004480AF0E6
:1003A000F3FFFE2802D8024B1C54EAE710BDC046FA
:1003B0007015002070B5050032490AF0A1FF002831
:1003C00019D0314928000AF09BFF041E17D02F498D
:1003D00028000AF095FF002828D02D4928000AF0AF
:1003E0008FFF00282ED02B4928000AF089FF002813
:1003F0003CD0002070BD0AF0F3F90120FAE701209B
:100400000AF0EEF9FFF7B6FF23480AF0BDFF0AF045
:10041000E7F904E0204B185D0AF0E2F901341E48C8
:100420000AF0B2FFA042F5D80120E3E703300AF05A
:10043000D7F9FFF79FFF18480AF062FA0AF0D0F9DF
:100440000120D7E704300AF0CBF9FFF793FF124CF5
:1004500020000AF055FA0AF0C3F9FFF78BFF2000DD
:100460000AF04EFA0AF0BCF90120C3E705300AF0A1
:10047000B7F9FFF77FFF08480AF042FA0AF0B0F92F
:100480000120B7E788B80010C4D0001090B8001061
:1004900098B80010A8B800107015002010B502E040
:1004A000D0231B069B6DD0231B061B6DDB07F7D4E7
:1004B000134804F0CBF914E0124804F0C7F91248CD
:1004C00004F0C4F9114804F0C1F9114804F0BEF970
:1004D000104804F0BBF9104804F0B8F90A2004F001
:1004E00081F90E4804F0E2F9FFF744FF0A2004F016
:1004F00079F90B48FFF75EFF0028DDD0EEE7C04634
:10050000B0B80010E0B80010FCB800100CB9001032
:1005100040B9001084B90010E0B90010DCB8001038
:1005200070150020002303604360836003617047FF
:1005300070B5040015000068002808D0A2680021EA
:1005400003F0CAFF206803F0AFFF0023A360A5609B
:10055000280003F07BFF20602A00002103F0BCFF8D
:10056000A568280003F072FF60602A00002103F0F4
:10057000B3FF70BD10B58300084A944663441A68FF
:1005800040246240803414408022520113431C6096
:10059000C000034B9C466044416010BD04C0014054
:1005A0000040014080000B4B9C46604400290DD068
:1005B0000823002A0CD004221343026853400C2263
:1005C0001A4080235B0103431A6070470023F0E761
:1005D0000022F1E704C00140002909D08000094B46
:1005E0009C46604480239B01034302221A607047AB
:1005F0008000044B9C466044C0239B0103430222BD
:100600001A60F4E704C0014070B5D0231B061B68D4
:10061000094C9D002C59204207D1074D9B000443F3
:100620005C510D2000F00CFA70BD044B044A0548E3
:10063000CC2102F00BF9C046E42C002024BA0010B3
:1006400068D7001050BA001010B50400D0231B0664
:100650001A680B4B9200D35818420BD00D2000F0B3
:10066000F7FAD0231B061B6805499B005A58A24382
:100670005A5010BD034B044A0448D62102F0E6F854
:10068000E42C002088BA001044D7001050BA0010A3
:10069000072303409B00C00899403C308000014B79
:1006A000C150704700400140F8B507000C0016002B
:1006B0001D00FFF7EDFFFB089B00ED1807203840F9
:1006C00080008440002E04D080239B012B431C60BB
:1006D000F8BDC0239B012B431C60F9E710B5D02364
:1006E0001B061B68002B03D0024BFFF7DDFF10BD7C
:1006F000014BFAE7304101400041014010B50123B0
:100700008340D0221206936293610521FFF732FFE6
:1007100010BD0000034B1B6802201840431E984187
:10072000C0B2704700C00640EFF3108072B6034BB2
:100730001B68002BFBD0BFF35F8F70472C0100D0EC
:10074000BFF35F8F024B00221A6080F3108870475E
:100750002C0100D0F8B506000C001500FFF7E4FFEF
:10076000E308F718F15C07222240012393400B4273
:1007700005D1DBB20B433B70FFF7E2FFF8BD210070
:10078000280002F0FBF8F0B583B0060001911400D8
:100790001F00FFF7C9FF00E00134BC420CD8E3089A
:1007A000F518F35C0721214001228A401A42F3D157
:1007B000D2B21A432A7001E001246442FFF7C0FF5D
:1007C000002C02DB200003B0F0BD019B002BF9D010
:1007D000089802F0D3F8000070B505000C00FFF790
:1007E000A3FFE308EE18EA5C0721214001238B40B8
:1007F000134204D09A433270FFF7A2FF70BD034B3F
:10080000034A0448332102F021F8C046B4BA00106C
:100810009CD70010D4BA0010002307E0054A9A18AC
:100820009200BFF35F8F0021116001331F2BF5D9B8
:100830007047C04640000034054A1078431CDBB2C4
:100840001370172B02D9130010221A707047C0467C
:10085000900D002010B582B00100054C054B0093AF
:100860001F2318222000FFF78EFF02B010BDC046E4
:100870000C1F002010BB0010074B9B68103080003D
:100880001950BFF35F8FBFF35F8F044B00211960D6
:1008900082F310887047C04600ED00E0240100D0CC
:1008A0001F23181A7047000010B50388DA0A1C2AA3
:1008B00005D15B055B1502335B00C01810BD034B0F
:1008C000034A0448B12101F0C1FFC0462CBB00100F
:1008D00000D8001044BB001010B5091A0B1F0A4ABB
:1008E00088180A4A904208D8C90706D45B105B05ED
:1008F0005B0D0748184380B210BD064B064A0748F7
:10090000A32101F0A3FFC046FC070000FE0F00007A
:1009100000E0FFFF7CBB0010F4D7001044BB0010C8
:1009200010B5091A04394A08090B08D14905490DBF
:10093000064B0B430380064B1343438010BD054B0E
:10094000054A0648AB2101F081FFC04600F0FFFFD9
:1009500000F8FFFFACBB0010C8D7001044BB00106C
:1009600001238340034A10681840431E9841C0B2D7
:100970007047C04600E100E0002904D0034B186036
:10098000034B18607047034B1860FBE780E200E000
:1009900000E100E080E100E010B501238340180091
:1009A000FFF7EAFF10BD000001238340014A1360F6
:1009B0007047C04600E200E0024B9B6810308000A8
:1009C000C058704700ED00E010B5FFF7F5FF0028B4
:1009D00005D0054BC01A2F2803D8012010BD0020D8
:1009E000FCE70020FAE7C046940D002070B5040033
:1009F0000D00EFF3108672B60C4B1B68002BFBD07A
:100A0000BFF35F8F2000FFF7D7FF094B984201D05B
:100A1000A84205D1320029002000FFF72DFF70BD4C
:100A2000044B054A0548862101F010FF240100D03F
:100A3000CD010010BCBB001028D8001044BB001032
:100A4000F0B5DE4657464E464546E0B589B081468C
:100A500001911500EFF3108A72B66D4B1B68002BE5
:100A6000FBD0BFF35F8F6B4B00269E57002E41DB00
:100A70007400A419A400684824180622A256654BE5
:100A80001A70664B9A684B4610339B00D3589846B1
:100A90001F00181A2F2839D9614B984530D105AF5E
:100AA000604B3B80604973009B46981980005A4B0D
:100AB000984640440230FFF70FFF78805B4BBB80C5
:100AC000FF23BB71FD71019B079333005B449B00C7
:100AD000434407CF07C301231C43A0465246414667
:100AE0004846FFF7C9FE09B0F0BCBB46B246A9466E
:100AF000A046F0BD4E4B4F4A4F48D72101F0A6FE0D
:100B00004E4B4C4A4C48DE2101F0A0FE01380C212E
:100B100003F090F8002912D101239F43BB463B000C
:100B20000027DA79AA4211D90621595600290CDB8F
:100B30004A005218920038491F008B18F1E7404BC9
:100B40003C4A3D48EA2101F081FE1F00002F2ED0D3
:100B500005AB3C4A1A80813A5A800623FB56029321
:100B6000002B17DA384805AB9B469880029A9A7199
:100B7000DD71019A0792381D2100FFF7ADFEB880A4
:100B8000BE71254B7200921992009B185A4613CAE7
:100B900013C3A3E7381DFFF787FE0100700080191B
:100BA00080001D4BC0180430FFF796FEDBE705AF51
:100BB0001C4B3B801C49730002939B199B00164AF7
:100BC00090461A0042440392901CFFF785FE7880FD
:100BD000039A101D5946FFF77FFEB8801B4B5A46FB
:100BE0004146521A524153431B0DBB71FD71019A8C
:100BF0000792029B9B199B00434407CF07C3114BED
:100C00005A461380813B538001231C43A04665E76D
:100C1000240100D0372F0020940D002000ED00E0CB
:100C2000CD01001000A1FFFFC40D002001BDFFFF9A
:100C3000F4BB001010D8001044BB00101CBC001006
:100C400044BC00100148000001BD0000AAAA000039
:100C5000F0B5CE46474680B583B006000D00EFF3F1
:100C6000108872B64F4B1B68002BFBD0BFF35F8F11
:100C70004D4B9A6834001034A300D7584B4B9F4219
:100C800007D0AF4200D18BE00197494BFB1A2F2BC5
:100C900009D9424639003000FFF7EEFD03B0C0BC71
:100CA000B946B046F0BD3000FFF75AFE814600213C
:100CB0003000FFF771FEBFF35F8FEFF3058100296E
:100CC00001D08C4211D10123019C9C430020A368D8
:100CD000AB4212D00622A256002A0DDB53009B180D
:100CE0009B00334A2000D418F1E7324B324A3621B8
:100CF0003248FF3101F0AAFD2000AB4249D1062560
:100D00006557002D2BDB2A4B6A00521992009B1865
:100D10009A68A260DA79E2719B795BB2A371002BC9
:100D20000FDA2748A080224B6A00521992009B18C4
:100D3000244A11789971157049463000FFF72CFE4E
:100D4000A7E7680040198000194BC0180430FFF76E
:100D5000ABFD0100231D1800FFF7BEFDE2E70029EF
:100D600012D100280ED0FF238371174B83801549C1
:100D70000B78A3710E4A154BA41A644163431B0DF3
:100D80000B70D9E7094FF2E71149201DFFF7C8FDA5
:100D9000D2E7104B084A6A210848FF3101F056FD9E
:100DA000024F76E7240100D000ED00E0CD010010F5
:100DB000940D0020B8BC0010E0D7001044BB001018
:100DC00001BD0000372F002001BDFFFFAAAA0000CF
:100DD000CE0D0020ECBC001010B5032304009C4392
:100DE000064A9446644422681840C000FC3383409D
:100DF0009A43130081400B43236010BD00E400E0E0
:100E000070B5012202432E4BD31A2F2B28D8EFF3B3
:100E10000583002B2BD0EFF3108C72B6294909689B
:100E20000029FBD0BFF35F8F254C274905002D1B00
:100E30006D416943090D4CB2244989689B00C9582A
:100E400091421BD00021032932D81D4B4A00521871
:100E500092009B189B795BB2A3421FD00131F2E74D
:100E60001B4B1C4AC7211C48490001F0EFFC1B4BDF
:100E7000184A92211848FF3101F0E8FC134A9268A1
:100E80001749D150174B1A7882711C70BFF35F8FCE
:100E90000C4B00221A608CF3108870BD084B4A007E
:100EA0005518AD005D19FF26AE710F4AAA80E9E71B
:100EB0000E4B084AD1210848490001F0C7FCC04642
:100EC000940D0020240100D0AAAA000000ED00E04B
:100ED000F4BC0010ACD7001044BB00101CBD0010C7
:100EE000CD010010372F002001BDFFFF28BD0010ED
:100EF0000022044B02E0044902C30132072AFAD956
:100F00007047C04600E400E08080808010B5FFF7A5
:100F1000C7FC0100024B1800FFF75EFC10BDC04685
:100F20003C2F002010B582B00100074C074B009306
:100F3000052300222000FFF726FC002801DB1F23E9
:100F4000181A02B010BDC0463C2F002030BD001062
:100F500070B504000E001500FFF76EFC01002000C4
:100F600000F006F8A680E580BFF35F8F70BD00003B
:100F7000024B9C4661448900016070474000003488
:100F800010B5002B02DB0260436010BD024B034A28
:100F900003483F2101F05AFC4CBD001080D80010DE
:100FA00068BD001070B582B0060014001D00FA2262
:100FB000920000230698002103F0D4F902000B00F0
:100FC00012196B41002B09DB6846FFF7D9FF009A25
:100FD000019B32607360300002B070BD012252424A
:100FE000004BF1E7FFFFFF7F10B582B0040000F077
:100FF0004DFE02000B006846FFF7C2FF009A019BFE
:1010000022606360200002B010BD30B585B00400DE
:101010000D0002A8FFF7E8FF029A039B009520004D
:10102000FFF7C0FF200005B030BD10B50400FFF78A
:1010300003FC01002000FFF79BFFFF232371BFF398
:101040005F8F10BD10B50400FFF7F6FB0100200014
:10105000FFF78EFFFF23237100236371BFF35F8FC0
:1010600010BD0000034B9C46614489000160BFF342
:101070005F8F70474000003410B504000120FFF777
:10108000E9FB01002000FFF7EDFF10BD084B5B6A94
:10109000994209D8064A926A824207D2994201D0FF
:1010A000012002E0002000E0002070470120FCE762
:1010B0000040054010B500290AD003681B7B8B4215
:1010C00006D38068054B9C4661440901401810BD59
:1010D000034B044A04483C2101F0B8FBFFFFFF0F1B
:1010E00030BE0010B8D9001054BE0010F8B504008E
:1010F0001700FFF7DFFF0668456839002000FFF79B
:10110000D9FF026843680120AB4201D802D0002019
:10111000C0B2F8BDB242FBD8F9E7000010B5002B11
:1011200002DB0260436010BD024B034A03483F21CB
:1011300001F08CFB4CBD001084D9001068BD00107C
:1011400010B582B004000498059912184B41002B89
:1011500009DB6846FFF7E2FF009A019B22606360AB
:10116000200002B010BD01225242014BF1E7C046FF
:10117000FFFFFF7F10B5002908D0037B8B4205D30A
:1011800000684B005B18033BC01810BD024B034ABC
:101190000348682101F05AFB84BE001060D900109A
:1011A000A0BE001010B5437B8B4201D1012010BDC1
:1011B000FFF7E0FF8378002B01D10020F7E7012043
:1011C000F5E770B50400857B002D01D1280070BDC6
:1011D0002900FFF7CFFF4378A373002B00D1E373FF
:1011E0000023837043700370F0E70000F8B5060039
:1011F0000C001500FFF7BEFF0700002C0DD0002DDE
:1012000011D0AC4215D029003000FFF7B3FF847035
:101210003B78002B13D13D70F8BD0A4B0A4A0B48AE
:101220006F2101F013FB0A4B074A0848702101F0B7
:101230000DFB084B044A0548712101F007FB437080
:101240003D70E9E7E4BE00103CD90010A0BE0010DC
:10125000F0BE0010FCBE001070B506000D001400BA
:10126000002914D0002A14D04368806898470028C9
:1012700006D0220029003000FFF7B8FF280007E061
:101280002A0021003000FFF7B1FF200000E010002D
:1012900070BD0800FCE7000070B504000D1E0CD006
:1012A000FFF768FF0023837043700370617B2A009F
:1012B0002000FFF7D1FF607370BD034B034A044861
:1012C000A52101F0C3FAC04614BF001050D9001088
:1012D000A0BE001070B504000D1E0FD0FFF762FF16
:1012E00000280BD1E17B00290ED1A37B002B03D179
:1012F000E37B002B0DD1A573E57370BD084B094A44
:101300000948F62101F0A2FA2000FFF733FF4570EB
:10131000EBE7064B034A0448FB2101F097FAC0466D
:1013200018BF00102CD90010A0BE00103CBF001048
:1013300010B5002907D003681B7B8B4203D3C0681C
:101340000139401810BD034B034A0448412101F004
:101350007DFAC04630BE001018D9001054BE0010EF
:1013600070B505000C00080000F08AFD0949200056
:1013700000F0CAFCFFF760FA074B9C46604480000F
:1013800068602C75D0231B061B786B75034BA4007B
:10139000E55070BDAD14001040000034D42C002086
:1013A0000A4B1A68EFF3108172B61368002BFCD059
:1013B000BFF35F8F054B1B68BFF35F8F00221A607E
:1013C00081F3108840BF002000217047F82E0020D4
:1013D00010B582B0040000F059FC02000B00684612
:1013E000FFF79CFE009A019B22606360200002B020
:1013F00010BD70B584B0040016001D0002A8FFF7F0
:10140000E7FF029A039B009601952000FFF798FEE4
:10141000200004B070BD0000F0B583B00700019259
:101420001D000AAB1C780BAB1E78002C0BD000689B
:101430002100FFF7B7FE002809D0194B194A1A48B6
:10144000672101F003FA0068FFF7BBFE0400002CDF
:1014500002D1200003B0F0BD21003800FFF72AFEC2
:10146000019B03604560089B8360099BC3603868EB
:101470002100FFF711FFA042EBD1387D019A2B002C
:1014800000F08AFC051E01D0002E04D00C9B002B1E
:10149000DFD01D70DDE73868210000F077FEF5E74A
:1014A00050BF00106CD9001054BE0010F0B5DE46DD
:1014B00057464E464546E0B58FB00B900021794B1C
:1014C0008200D458894683E029002000FFF7F2FD0E
:1014D000804602684368921BBB41002B09DD4346EE
:1014E0001A685B680B9800F057FC002398460026AA
:1014F0008AE0002B01D1002AF1D10021584600F0EA
:101500003BFE0700A84215D143461A685B68089263
:10151000099343469E68DB689846002E10D0290048
:101520002000FFF705FF037899461B021F43276140
:10153000002069E05C4B5D4A5D488E2101F086F930
:101540005C4B5A4A5A48922101F080F92369002BDA
:1015500000D177E0BB4219D1069807990023424297
:101560008B4100920193089A099B0CA8FFF7E8FDB4
:101570000C9A0D9B00210491013103910295414683
:10158000019100962000FFF747FF16E04A4B474ABB
:101590004748A12101F05AF9069A079B002B01D177
:1015A000002A52D120682900FFF794FE290020006C
:1015B000FFF7BEFE037801330370002323616268E6
:1015C000BFF35F8F13608AF310880120002861D079
:1015D0000CA8FFF7FDFE0C9E0D9F00220023089231
:1015E00009936268EFF3108A72B61368002BFCD07F
:1015F000BFF35F8F23689B465D7B002D00D063E7C0
:1016000000239846002600206368BFF35F8F002206
:101610001A608AF31088002ED8D04B461F022F4341
:1016200041463800B047069007916268EFF3108A90
:1016300072B61368002BFCD0BFF35F8F079B002BA3
:1016400000DA83E7079B002BA6DD2369002BA9D0D6
:10165000BB4219D10CA8FFF7BBFE0C9A0D9B069854
:101660000799009001910CA8FFF76AFD0C9A0D9B59
:1016700000210491013103910295414601910096A8
:101680002000FFF7C9FE98E70B4B084A0848A42141
:1016900001F0DCF80FB0F0BCBB46B246A946A0464C
:1016A000F0BDC046D42C002078BF00109CD900109B
:1016B00054BE001090BF00109CBF001010B50C4B22
:1016C0005B68002B04D00B480A21FFF751FC10BDCA
:1016D000074C094A20682300102100F098FC0320E1
:1016E00000F0ACFA03212000FFF73AFEEBE7C0461A
:1016F000DC0D0020F82E0020ED10001010B5064B78
:101700005B68002B01D0044810BD044B044A054817
:101710005E2101F09BF8C046DC0D0020D8BF001010
:1017200000D9001054BE001070B50500182002F05A
:101730008DFE04000C490200280000F06FFC2060C0
:101740001021280002F098FEA0600121280002F07C
:1017500093FEE060012000F087FA01002000FFF70F
:10176000FFFD200070BDC046ED10001010B5040054
:10177000164B98421DD0037D154A99008A58824223
:101780001DD1134A9B0000219950006800F05CFCB9
:10179000207D002100F0B8FA207D00F05BFAE068BF
:1017A00002F082FEA06802F07FFE200002F07CFEC4
:1017B00010BD084B084A0948D32101F047F8084BEF
:1017C000054A0648D72101F041F8C046DC0D00204B
:1017D000D42C0020ECBC0010ECD8001054BE00103B
:1017E000FCBF0010F0B5DE4657464E464546E0B514
:1017F0008DB0060090461F00169B9A46179B99468F
:1018000018AB1B780793272302AA9446634400224F
:101810001A7021E001003000FFF78AFD00783CE0FB
:101820000698002B5CD0079B002B59D04946D04727
:1018300004000D0003000B4359D0002940DB08A829
:10184000FFF7C6FD089A099B0094019508A8FFF7C9
:1018500077FC089B9846099F7268EFF3108B72B66D
:10186000136859424B41D9B20691002BF8D1BFF30E
:101870005F8F273302AA94466344049300230393A3
:1018800002934B4601935346009342463B0030007F
:10189000FFF7C2FD0400051EBCD17368BFF35F8F64
:1018A000002119608BF31088002D17D0272302AA7E
:1018B000944663441B78002BB2D100022043B0E76A
:1018C00000236242AB410092019342463B0008A8CC
:1018D000FFF736FC089B9846099FBDE70120404270
:1018E0000DB0F0BCBB46B246A946A046F0BD069876
:1018F000F6E7F0B5C64600B584B005008846160088
:101900001F000AAB1C78FFF7F9FE029401970096BE
:101910002A004346FFF766FF04B080BCB846F0BD1E
:10192000F0B5C64600B588B005001F216944002007
:1019300008706868EFF3108872B601680029FCD05F
:10194000BFF35F8F1F21694404910121039100219E
:1019500002910F9901910E9900912800FFF75CFD0B
:101960000400071E14D106006B68BFF35F8F0022CE
:101970001A6088F31088002F14D01F236B441B7843
:10198000002B0BD13002204308B080BCB846F0BD1C
:1019900001002800FFF7CCFC0678E5E7287D00F081
:1019A0008FFAEFE701204042EEE70000F0B5C646AF
:1019B00000B505000C1E42D04268EFF3108772B6E6
:1019C0001368002BFCD0BFF35F8FE6B22B689846FC
:1019D00031001800FFF7E6FB00282AD02B69A3424C
:1019E00013D0240AE4B231002800FFF7A1FC0378E9
:1019F000A34211D000206B68BFF35F8F00221A60F2
:101A000087F3108880BCB846F0BD0E4B0E4A2C21DF
:101A10000E48FF3100F01AFF3100404600F0B6FBDF
:101A20000028E8D10A4B084A99210848490000F0EB
:101A30000DFF2B69A342DED100232B61DBE70020E1
:101A4000E0E7C04624C00010D4D8001054BE0010F7
:101A500048C0001010B50400FFF750FE2100FFF74A
:101A6000A5FF10BD407D704730B587B004000D0064
:101A7000EFF30583002B20D106225242D31712190F
:101A80006B418B4202D803D1824201D9002200234C
:101A900004A8FFF743FB02A8FFF79AFC02980399FA
:101AA000049A059B121A8B41002B0BDC08D02000F6
:101AB000290000F0F7F807B030BD144800F05EFFD1
:101AC000002AF4D0124A0498059900230093FFF7E6
:101AD00010FF002813DAEAE70E4B1A68EFF31081C3
:101AE00072B61368002BFCD0BFF35F8F094B1B68E5
:101AF000BFF35F8F00221A6081F3108820BF049823
:101B00000599FFF7C3FA0028E6D0D0E74CC00010D3
:101B1000A1130010F82E002000B583B002000B00C6
:101B20006846FFF766FC00980199FFF79DFF03B038
:101B300000BD10B5FA2292000023002102F012FC31
:101B4000FFF7EAFF10BD000030B583B005000C00C0
:101B5000EFF30583002B0FD10B4A00230093FFF70F
:101B6000C8FE00280BDD20BFFFF774FF280021000E
:101B7000FFF78CFA03B030BDFFF788FAFAE72800C8
:101B80002100FFF783FAF5E7A113001010B5002B31
:101B900002DB0260436010BD024B034A03483F2151
:101BA00000F054FE4CBD0010ECD9001068BD0010D0
:101BB00070B5EFF305801038EFF3108C72B6194B47
:101BC0001B68002BFBD0BFF35F8F01221300834003
:101BD00015494B6315490B60154909780C00C44041
:101BE000224213D0104A546A124A8500AA589442DD
:101BF00005D3114AAA580E4C9943217007E00A4AAE
:101C0000031D9B0099589950002200E00022BFF369
:101C10005F8F044B002119608CF31088002A00D0DC
:101C2000904770BD280100D0004005403C70054041
:101C30003B2F0020042F0020C41D002010B5010000
:101C4000024A034B1800FEF785FD10BD9CC0001032
:101C5000352F002010B50100024B1800FEF7BCFD27
:101C600010BDC046352F002010B582B00100054CD4
:101C7000054B0093032300222000FEF784FD02B0F1
:101C800010BDC046352F0020C0C00010044B5B6A59
:101C9000034A906A1900536A9942F9D17047C046C5
:101CA00000400540084B5B6A01E0074B5B6A8B42D2
:101CB000FBD301E0044B5B6A8B4203D1024B9B6A6E
:101CC0008342F7D37047C04600400540F0B583B06B
:101CD00004000D00FFF7DAFF06000F0022002B00C2
:101CE00092197B41994202D804D1904202D9012233
:101CF0005242D3176846FFF749FF00980199FFF752
:101D0000D1FF03B0F0BD000070B504000E00EFF38A
:101D1000108572B61B4B1B68002BFBD0BFF35F8F87
:101D2000002E1CD02000FEF747FE174B83420BD03D
:101D300019002000FEF75AFE01212000FEF72CFEBC
:101D40000123A340114A1360114BA400E650BFF3D6
:101D50005F8F0C4B00221A6085F3108870BD0C4B0E
:101D6000A2000021D1500122A2400A490B789343DE
:101D70000B7005492000FEF76BFF00212000FEF7E5
:101D80000BFEE4E7280100D0B11B001038600540CD
:101D9000C41D00203B2F0020F0B5DE4600B584B006
:101DA0000400150001921E000293FFF76FFF0395D8
:101DB0008E4202D84ED185424CD9EFF3108B72B6C9
:101DC000274B1B68002BFBD0BFF35F8F254A17788A
:101DD0000125A540EBB23B431370234B5D63221DED
:101DE00092000199D150214AA100029888501B6AA3
:101DF0002B4212D11C4B1B6C2B4208D00020BFF38E
:101E00005F8F174B00221A608BF3108823E0184B6A
:101E1000184A1948C52100F019FDFFF737FF8E4217
:101E200014D802D1039B834210D80E4B1B78BB42BF
:101E30000ED00D4B1D625D631F2222400123934093
:101E40000E4A1360074B1F700120D8E70020D6E729
:101E50000120D4E7012004B080BCBB46F0BDC046E1
:101E6000280100D03B2F002000400540042F002017
:101E7000D4C00010D0D90010F8C0001080E200E0FB
:101E8000EFF3108C72B60B4B1B68002BFBD0BFF32B
:101E90005F8F01238340084A136208490A789A43F6
:101EA0000A70BFF35F8F034B00221A608CF3108817
:101EB0007047C046280100D0004005403B2F00205D
:101EC000EFF3108C72B60B4B1B68002BFBD0BFF3EB
:101ED0005F8F01238340DAB20749087802430A7012
:101EE000BFF35F8F034A002111608CF31088034A0F
:101EF00013607047280100D03B2F00203C60054054
:101F000010B5002908D0037B8B4205D300684B0035
:101F10005B18033BC01810BD024B034A03486821FD
:101F200000F094FC84BE001044DA0010A0BE001043
:101F3000F8B506000C001500FFF7E2FF0700002CC3
:101F40000DD0002D11D0AC4215D029003000FFF784
:101F5000D7FF84703B78002B13D13D70F8BD0A4B3E
:101F60000A4A0B486F2100F071FC0A4B074A0848E7
:101F7000702100F06BFC084B044A0548712100F009
:101F800065FC43703D70E9E7E4BE001030DA0010F4
:101F9000A0BE0010F0BE0010FCBE001070B5060020
:101FA0000D001400002914D0002A14D04368806862
:101FB0009847002806D0220029003000FFF7B8FF1C
:101FC000280007E02A0021003000FFF7B1FF2000C1
:101FD00000E0100070BD0800FCE770B505000023AC
:101FE000437301338373037BC373012406E0210031
:101FF0002800FFF785FF0134E4B24470297BA14239
:10200000F5D82800FFF77CFF0023437070BD10B5A2
:10201000017342608360FFF7E0FF10BDF8B5050073
:102020000E0017001021012002F026FA04000321FF
:10203000280002F021FA20603B0032002900200035
:10204000FFF7E5FF2000F8BD10B50400006802F0BE
:102050002BFA200002F028FA10BDF0B5C64600B5F4
:1020600005000C1E03D1200080BCB846F0BDFFF770
:1020700047FF4678002EF6D031002800FFF740FFDA
:10208000477800239846437021002800FFF738FF67
:1020900043464370320021002800FFF77FFF040011
:1020A00039002800FFF7D9FF020021002800FFF7C0
:1020B00075FF0400D7E70000F0B5C64600B5040080
:1020C0000D001700002927D0FFF71AFF4378002BD7
:1020D00028D18378002B2BD101782000FFF7BDFF9A
:1020E00006008046002F0AD0E17B002926D1A37B81
:1020F000002B03D1E37B002B25D1A573E573434669
:10210000002B26D129002000FFF7FAFE00234370A0
:10211000300080BCB846F0BD114B124A124838213D
:1021200000F094FB114B0F4A0F483A2100F08EFB50
:102130000F4B0C4A0C483B2100F088FB2000FFF7B6
:10214000DFFE4570D3E70B4B064A0748422100F0FB
:102150007DFB31002000FFF7D3FE00238370D1E721
:1021600034C100101CDA00103CC1001070C1001016
:1021700098C100103CBF001070B504000A00457BF8
:102180002900FFF799FF6073280070BD70B5060045
:102190000C1E40D0437B8B4207D0FFF7B1FE0500F9
:1021A0008178002906D1002036E00121FFF7E4FF05
:1021B000012031E03000FFF7A3FE0178A1420DD0ED
:1021C0003000FFF79DFE4178A1420AD00029F7D1E7
:1021D000124B134A13486B3100F038FB6B780370D5
:1021E00001E06B7843700023AB706B70012221001B
:1021F0003000FFF761FF0200717B814205D03000A3
:10220000FFF7CCFE7073012006E0074B044A054837
:10221000712100F01BFB002070BDC04628BD0010DE
:1022200004DA00103CC10010BCC1001070B5046B92
:10223000E30701D4200070BD02003032C0239B01AF
:1022400013430A4A1A60456A836AAD01ED18AD026C
:10225000062000F0BDF9064901F0ECFC0100280061
:1022600001F0E8FC0021FFF731FDE3E70103000086
:102270004E0E000070B504000E001500FFF7D6FFEB
:1022800022002C32E36A5E40354080235B01134319
:102290001D60206370BD000070B505000C000620B5
:1022A00000F096F9C000210001F0C4FCC60908D076
:1022B0000E4B9E4216D87F230340013334005E0844
:1022C00000E001246C62AE62002200212800FFF7CA
:1022D000D1FF062000F07CF98000A101891901F0EE
:1022E000A9FC70BD0026024CECE7C046FEFF0000D2
:1022F000FFFF000010B505394901013AD200114332
:10230000002B09D002220A43012B07D000211143E0
:102310006E22FFF7AFFF10BD0022F4E70421F6E7BD
:10232000002909D00A22064B9C466044434258418A
:10233000044B4000C252704780225200F3E7C0466F
:102340000080FCBF142F002070B505000C00062093
:1023500000F03EF9061E27D0164B9D4226D0802263
:10236000D203154B1A60154B1A60154B9B68110070
:102370009943FAD100212800FFF7D2FF210028005D
:10238000FFF78AFF06000023012208212800FFF73B
:10239000B1FF2A002C3280239B01134310221A60C4
:1023A000084B2B630323AB64300070BD8022120402
:1023B000D7E7C0460080034000E0004000F0004046
:1023C00000C0004001030000F8B5DE4657464E4607
:1023D0004546E0B506000F0015000A9A934250D317
:1023E0001A0E92461B0298460A9A0023404651460E
:1023F00001F05EFC81467400A419A4002F4B9C469A
:1024000064446368834200D26060331FDBB29B4642
:10241000012B3CD9C0239B012343802212011A6067
:10242000274BB200D158002907D0586901F002FCAF
:10243000013043001B18033BFDD26D0123685D4052
:10244000E0222A4080235B0123431A605A46012A76
:1024500028D980239B012343802212011A604B4616
:1024600063604A4600234046514601F021FC144B6C
:10247000B60098510120F0BCBB46B246A946A04622
:10248000F8BD104B104A1148332100F0DFF9012F3D
:10249000C0D1C0239B01234303221A60A368DB073A
:1024A000FCD5CAE72168794003220A401A60A36874
:1024B0000125BD401D42FAD0CBE7C0460080004058
:1024C000101F0020DCC1001050DA0010F0C1001015
:1024D00030B583B00C2000F011F9FEF71BF900288D
:1024E0000DD0002304E02E4A99002E488850013375
:1024F000092BF8D92A4B2C4A5A6203B030BD2B4B1A
:1025000000229A6700F06CF9294B01221A60274BD0
:102510005B6C012BFBD1274B03221A60234B9B6B77
:10252000012BFBD1013300930433234A01212348BB
:1025300000F054F805230093214A0121214800F0BE
:102540004DF8214B0093002202210420FFF73CFFAD
:102550001E4D00952B00002201210520FFF734FFBE
:10256000104C00942300002200210720FFF72CFFCD
:1025700000942300002200210820FFF725FF0A4BCA
:1025800000932300002200210920FFF71DFF009582
:102590002B00002200210620FFF716FFADE7C04602
:1025A000101F0020006CDC021BB700000080004000
:1025B0003CB0004030B00040002F6859008002401D
:1025C000008C864700C00240001BB70040597307CB
:1025D000014B8000C0587047101F0020F0B5C64660
:1025E00000B504000E0017001D00374801F022FB63
:1025F0008046364BFA18364B9A4239D801003800DB
:1026000001F018FB0200103A98235B009A4235D87B
:102610006B1E062B38D8069B013B062B34D83F098E
:10262000474537D32D04069B1B031D432368002B0E
:1026300036DB284B9C4244D080235B01264A136042
:10264000264A1360264A926819009143FAD12660FF
:10265000A060221DC0239B01134321221A6022681F
:10266000002AFCDAE56008221A6080BCB846F0BD9A
:102670001C4B1D4A1D48112100F0E8F81C4B1A4A5A
:102680001A48192100F0E2F81A4B174A17481C2182
:1026900000F0DCF8184B144A1448232100F0D6F857
:1026A00022683F231340B342C3D1A3681B051B0D0F
:1026B0008342BED1E368EE22D2021340AB42B8D1CE
:1026C000D3E780239B01B9E7001BB70080E84BD319
:1026D00080F8A93200C0024000E0004000F0004055
:1026E00000C000402CC2001060DA00108CC2001044
:1026F000C4C20010E0C200102CC3001080239B0055
:102700000343014AD362704700800540024B1A68B8
:10271000024B5A607047C046AC2C00200080054038
:1027200010B5174B8022D2051A60164B164A1A6054
:1027300000290AD0154BE022D2041A60002809D1E2
:10274000124B802212061A6010BD0D4BE022D204FB
:102750001A60F3E743011B1A9B00181800010C4B89
:10276000186080235B04984202D3094B094A1A601F
:10277000FFF7CCFF054B8022D2051A60E4E7C04684
:1027800000B0054008200140FCFF010000A005400A
:10279000AC2C0020FFFFFF0010B5030010000C4A16
:1027A0008024E4051460002B0DD001221343094A54
:1027B000094CD461094C5C4014625162936200215F
:1027C000FFF7AEFF10BD034B0022DA61F7E7C0460A
:1027D00000B0054000800540D3C007B02D3FF84F42
:1027E000064BAA2212011A602F22DA60044B054A16
:1027F0001A60024B5B68002BFBDA70470040024016
:102800000060024000B0FA0000BEFDE703000A4A83
:102810001268002A08D0084A1068C318074A9A426A
:1028200006D3054A13607047034A05491160F2E771
:1028300001204042F7E7C046A828002000000420FD
:10284000402F002010B5FFF7DFFF000030B583B048
:102850000D001900002A0BD0074B084C0192009381
:102860002B000200200002F021F80120FFF7CCFF2E
:10287000034B1A00F1E7C04648C3001058C30010CC
:1028800090CF001070B52B4B2B4A1A602B4B2C4A63
:102890001A602C4B9A682A4B9343FAD12A4C01E0D8
:1028A00008CC9847294B9C42FAD3FFF711FE234BE3
:1028B000274A1A60234B9B68DB43DB01FAD1254B87
:1028C00040229A675A671A67DA66234C09E0234B5D
:1028D000234A24488721FFF7B9FF2000FEF7A5FB14
:1028E0000834214B9C4209D22368002BF5D0012BE0
:1028F000EDD12000FEF7A6FB0834F2E71B4DA968D6
:102900001B4CC022200001F0EDFDAC60EFF305830D
:10291000002B00D000BEFDF77FFFFEF7E9FAFEF7BF
:10292000CDFE144C01E008CC9847134B9C42FAD3DF
:1029300070BDC04600E00040BFCDFBFE00F000408F
:10294000FE7F3C0000C00040FC1300200C1400205F
:10295000FFFFFF0100F00140EC13002088C30010CE
:102960006CDA0010A8C30010FC13002000ED00E09A
:10297000000000200C140020181400200FB400B533
:1029800083B0084801F062FF049B002B07D005A923
:102990000191180001F06AFF034801F057FF012080
:1029A000FFF732FFE4C30010CCCC001010B5014893
:1029B000FFF7E4FFF4C30010704710B5002802D001
:1029C0000B684968984710BD0100002007E08300AC
:1029D0001B185B00501C08601078C01830380A685B
:1029E0001378303BDBB2092BF1D97047F0B5DE46E6
:1029F00057464E464546E0B583B093461F000C9BB4
:102A00009A460D9C0E9B99460F9B9B0703D0B84698
:102A10000F00060022E00192A34688464E46B946C2
:102A20000700B44207D2551C4B4641462020B84708
:102A300001342A00F5E73D004F465C46019B9B466A
:102A4000B1464646B84637002E0007E0013C551C0B
:102A50005346185D43463900B0472A00002CF5D193
:102A600035003E0047460F9B9B0707D4100003B07C
:102A7000F0BCBB46B246A946A046F0BDB0464E46A5
:102A8000B9462F005D46531BB342EFD2541C4B4650
:102A900041462020B8472200F5E7F0B5CE4647462C
:102AA00080B585B0944698460C9D0D9C0EAB1B7866
:102AB0009946109A119B129EB7071CD4002B0CD07C
:102AC000F7070AD54F46002F02D10C37374204D002
:102AD000013B02E030272F550134944201D21F2CD4
:102AE000F8D9F70707D59C4205D21F2C03D8302709
:102AF0002F550134F5E7F70612D5770505D4002CDC
:102B000003D0944221D09C421FD00F9A102A32D079
:102B10000F9A022A37D01F2C0AD830222A550134A6
:102B20001F2C05D84A46002A33D02D222A550134BD
:102B3000039602930194009543466246FFF756FFC1
:102B400005B0C0BCB946B046F0BD621E012C10D025
:102B50000F9F102F0BD014000F9A102AD8D1B20655
:102B6000D6D51F2CD4D858222A550134D3E7023C9D
:102B7000CBE71400C9E7B206EED41F2CECD87822BC
:102B80002A550134C7E71F2CD2D860322A550134A8
:102B9000C1E7720703D52B222A550134C8E7320753
:102BA000C6D520222A550134C2E7F0B5DE46574685
:102BB0004E464546E0B593B081468A460892099351
:102BC0001CAB10CB1B789B461E9D219B9846002C6E
:102BD00003D1102342469A4390468023DB004646A9
:102BE0001E4042461A4212D0002C22D000260EE08F
:102BF0003033D9B2771C0AAB99552900200001F077
:102C000019F8AC4216D31F2F14D83E000400290037
:102C1000200001F00FF8CBB2092BE9D94246920609
:102C200005D54121C918C9B20A39C9B2E2E7612103
:102C3000F8E7270043460693209B05931F9B0493C8
:102C400003955B46029301970AAB0093099B089A90
:102C500051464846FFF721FF13B0F0BCBB46B246D1
:102C6000A946A046F0BDF0B5DE4657464E4645465D
:102C7000E0B597B00A900B910C929A46209B99462A
:102C8000219F22AA13789B46249B0993259C289B6D
:102C900098464A463A4302D11032934398468022DE
:102CA000D20045461540434613420AD04A463A43AD
:102CB00041D000252E0053460D934D46099B9A4660
:102CC0001BE02E0053460D934D46099B9A4614E097
:102CD0003033DAB2731C99460EAB9A555246230034
:102CE0002800390000F0E4FFBC4226D819D04B463A
:102CF0001F2B1CD84E4605000F005246230028000B
:102D0000390000F0D5FFD3B2092BE1D94246920633
:102D100005D54122D218D2B20A3AD2B2DAE76122FC
:102D2000F8E7AA45E3D94E460D9B9A4608E04E4681
:102D30000D9B9A4604E0002602E04E460D9B9A4603
:102D400043460693279B0593269B0493099B039375
:102D50005B46029301960EAB009353460C9A0B9977
:102D60000A98FFF79AFE17B0F0BCBB46B246A946D8
:102D7000A046F0BDF0B5DE4657464E464546E0B5A6
:102D800091B0804689460C929A461A9C1B9D22005F
:102D90002B002000290001F006FA002800D0ECE00A
:102DA00001225242D44B2000290001F0F7F90028FB
:102DB00000D0E2E001225242D04B2000290001F075
:102DC000D7F9002800D0D8E00022002320002900F5
:102DD00001F0CEF9002800D0E4E0069407958023A6
:102DE000DB001E9A1A400D921E9A1A4201D1062348
:102DF0001C930698079902000B00089209930300A0
:102E00000A00024300D1D9E0080D4005400DBC4E38
:102E1000B44660440A03120B1E00BA4B13431F0052
:102E200001F0D4F9B84AB94B01F063F9B84AB94B8B
:102E300001F040F9089009910022B74B30003900A9
:102E400001F033F9B54AB64B01F053F902000B001B
:102E50000898099901F02EF901F0D0F9834601F0A4
:102E6000B5F906000F00AF4AAF4B01F042F900225E
:102E7000AE4B01F01FF901F0C1F90890AC4AAD4B1F
:102E80003000390001F035F906000F00089801F014
:102E90009DF9A94AA94B01F02CF902000B00300062
:102EA000390001F002F906000F0002000B0001F0EA
:102EB00020F90A900B91089BA14A94466344002193
:102EC0000022089109921B05099300230893320000
:102ED0003B003000390001F0EDF80E900F91320008
:102EE0003B0000208021C90501F0DFF806000F003B
:102EF0000022944B0A980B9901F0E1F80022924BC2
:102F000001F0D8F802000B000A980B9901F0D7F8ED
:102F100000228E4B01F0CEF802000B000A980B99AC
:102F200001F0CDF802000B003000390001F0C2F8CA
:102F300002000B000E980F9901F0C1F80022714BAE
:102F400001F0B8F8089A099B01F0D3F806000F00C9
:102F500008960997069A079B01F020F900282FD0C0
:102F600001235B429C46E3440022774B300039004A
:102F700001F0A5F80890099122E01E9B04931D9B87
:102F800003931C9B02930094019553460C9A494667
:102F9000404600F0FFF811B0F0BCBB46B246A9466F
:102FA000A046F0BD002100220691079206948023DE
:102FB0001B069C46AC446346079310E700239B46E0
:102FC0005B466333C62B20D804261E9B1B0528D5E1
:102FD000089A099B190011430FD05D4A5D4B069872
:102FE000079901F0D3F800287AD000225A4B0698AE
:102FF000079901F0BDF8002872D01C9B5B4506DDE7
:103000005A469B1A013B1C9303E00526DDE700238B
:103010001C938023DB001E9A1A431E920026002375
:103020009B461D9B9E4265D29F1B02231E9A1A40FF
:103030000A921E9A134202D0002E00D000275B464F
:10304000002B07D0089A099B0698079901F037F8DA
:1030500006900791002200232000290001F088F843
:10306000002800D07CE03D4B1E9A13400493039748
:103070001C9B0293069B079C0093019453460C9A59
:103080004946404600F086F8002E00D183E71E9B9B
:103090009B0671D54525441C53460200494628002D
:1030A000C0475A46D317D2185A4005230593013E0C
:1030B0000496002303930A3302935B46DB0F0193CC
:1030C00000925346220049464046FFF76EFD0A9B98
:1030D000002B00D15FE7020047460C9E1D9D53E088
:1030E0001C9B002B9DD00D9B002B9AD01C9B013B61
:1030F0001C9396E7002798E7FFFFEF7FFFFFEFFFA6
:1031000001FCFFFF0000F03FFB799F501344D33FC9
:10311000B3C8608B288AC63F0000F83F61436F63E5
:10312000A787D23F71A379094F930A400000E03F7F
:103130001655B5BBB16B0240EF39FAFE422EE63FA1
:10314000FF03000000002C40000024400000184055
:103150002D431CEBE2361A3F80842E41FFF7FFFF20
:10316000069C079D220029008020000684466144B9
:103170000B000692079376E765258CE7541C5346AF
:1031800049462020B8472200931BAB42F6D31000DB
:1031900001E7C046F0B5DE4657464E464546E0B527
:1031A00095B00690079193469946209F1E9A1F9BC3
:1031B0001000190000F0F7FF002831D1012252421F
:1031C000BF4B1E981F9900F0D3FF002837D1012272
:1031D0005242BC4B1E981F9900F0E0FF00283DD1E1
:1031E0000022B94B1E981F9900F0D8FF002850D13B
:1031F0000022B64B1E981F9900F0BAFF002848D154
:10320000002200231E981F9900F0B2FF002850D121
:1032100000239846229B5B0500D4B6E0002458E0CA
:10322000229B0393219B029303230193A84B0093BA
:103230004B465A4607990698FFF7D8FB0EE1229BAA
:103240000393219B029304230193A24B00934B46CB
:103250005A4607990698FFF7C9FBFFE00423229A14
:103260001A4022990B4210D09B4B002A0FD0042207
:103270002299039121990291019200934B465A465B
:1032800007990698FFF7B2FBE8E0944BEDE70322BD
:10329000EEE7229B0493219B039302971E9B1F9CA6
:1032A000009301944B465A4607990698FFF762FD32
:1032B000D4E01E9A1F9B0020002100F0F6FE1E9015
:1032C0001F9101239846A5E70CAB30221A55013F08
:1032D00001341F2C01D8092FF6D81E981F9900F031
:1032E0008DFF050000F072FF02000B001E981F9971
:1032F00000F0DBFE7A4BFA009B181A685B680A92B2
:103300000B9300F0F6FE0890099100F09BFF060079
:1033100000F058FF02000B000898099900F0C5FE64
:103320000890099100226F4B00F038FF00282ED042
:103330000136300000F046FF02000B000A980B999E
:1033400000F01CFF002801D001350026002F2CD1F1
:10335000280000F03BFF02000B001E981F9900F0B0
:10336000A4FE06000F0000225E4B00F001FF0028C3
:1033700046D100225B4B3000390000F00FFF0028DF
:103380003ED1EB073CD501353AE0062746E700225F
:10339000544B0898099900F0EBFE0028D6D1002E76
:1033A00001D0F307D2D50136D0E7AA461F2C11D899
:1033B000013F0A21300000F03DFC651C30310CABB0
:1033C00019550A21300000F035FC092E0ED90600EF
:1033D0002C00EBE755461F2C0CD87B1E002F09D084
:1033E0000CAA302111551F000134F4E72B0055467B
:1033F0001C00F0E71F2C03D80CAB2E221A55013409
:103400001F2C10D80A21280000F0ECFB661C30317C
:103410000CAB19550A21280000F0E4FB051E01D071
:103420003400EDE734000323229A1340012B1CD013
:103430001F2C06D84346002B32D00CAB2D221A5538
:103440000134229B0393219B029301940CAB0093C4
:103450004B465A4607990698FFF7C8FA15B0F0BCD4
:10346000BB46B246A946A046F0BD219B002B13D017
:103470004346002B02D10C3313420FD0219B013B5A
:103480002193190003E00CAB30221A5501348C4211
:10349000CED21F2CF7D9CBE72199F8E72199F6E78F
:1034A000229B5B0704D50CAB2B221A550134C8E7CD
:1034B000229B1B07C5D50CAB20221A550134C0E74F
:1034C000FFFFEFFFFFFFEF7F65CDCD4165CDCDC1A4
:1034D00010C4001014C4001004C400100CC4001068
:1034E00018DC00100000E03FF0B5DE4657464E46BF
:1034F0004546E0B593B0824688469346119300292D
:1035000000D10DE300255646119B1878002800D104
:1035100009E3252809D06C1C5B462A004146B047C8
:10352000119B013311932500EEE70133119300271E
:1035300020E001231F4301321192012418E00223ED
:103540001F4301321192012412E004231F43013270
:10355000119201240CE008231F430132119201242F
:1035600006E010231F4301321192012400E00024E1
:10357000002C09D0119A1378203BD9B21029F6D823
:103580008B00C849CB589F46119B1A781300303BDB
:10359000DBB2092B10D92A2A13D00B94119B1A786D
:1035A0002E2A1ED0119A1378683BD9B2122959D805
:1035B0008B00BD49CB589F4611A8FFF705FA0B9029
:1035C000ECE71C9B1A1D1C921B68002B04DB0B9361
:1035D000119B01331193E1E7022217435B420B93E6
:1035E000F6E78022D20017435A1C11925A78130032
:1035F000303BDBB2092B0BD92A2AD3D11C9B1A1DD5
:103600001C921C68002C08DB119B01331193C9E745
:1036100011A8FFF7D9F90400C4E70024F4E78023D8
:103620005B003B43511C119151786C2901D01F0064
:1036300018E0C0239B001F430232119212E0802346
:103640003B43511C11915178682901D01F0009E0BA
:10365000C0231F430232119204E080235B001F430A
:1036600001321192119B1878672818D8252800D2AA
:103670004CE20300253BDAB2422A00D946E293002D
:103680008A4AD3589F4680239B001F4301321192E0
:10369000E8E780235B001F4301321192E2E77828BC
:1036A00000D933E2692800D230E20200693AD2B28E
:1036B000012393407E4A134211D11A0600D500E23D
:1036C0005B0500D422E21C9B1A1D1C921B689A46C3
:1036D000002C00D0B2E10122524253468EE16F2805
:1036E0000ED006D858283DD0622804D102239C462B
:1036F00008E0782839D010239F43063B9C4601E020
:1037000008239C46582833D0692803D0642801D068
:103710000C2297437A0501D50122974369282AD0C4
:10372000642828D0BA0500D59FE0FA0500D5C1E08D
:103730007A0600D4D3E01C9A111D1C911168FF2257
:103740000A4005970B9B049303946346029300235E
:10375000019300925B462A0041463000FFF725FAAC
:10376000050027E010239C46CCE710239C46C9E7C0
:1037700020221743C8E7BA0520D4FA0550D47A06A8
:1037800066D51C9A111D1C911168FF220A40D017A2
:103790001118414005970B9B0493039463460293D1
:1037A000D20F019200915B462A0041463000FFF79C
:1037B000FCF90500119B01331193A5E61C9A073211
:1037C00007218A43110008311C91116853689946FA
:1037D000DB170C930D930C9A0D9B100048400E9034
:1037E0004A4653400F930E980F990C9A0D9B801ADE
:1037F00099410E900F9108970B9B0793069463468F
:103800000493002305934B46DA0F02920090019136
:103810005B462A0041463000FFF725FA0500C9E75C
:103820001C9A111D1C911268D01711184140059760
:103830000B9B0493039463460293D20F0192009171
:103840005B462A0041463000FFF7AFF90500B1E7BB
:103850003A0605D51C9A111D1C910023D25E96E7ED
:103860001C9A111D1C91126891E71C9A07320721BE
:103870008A43110008311C9108970B9B079306940B
:1038800063460493002305930293536812680092E1
:1038900001935B462A0041463000FFF7E4F905003A
:1038A00088E7C0467CDA0010C0DA00100CDB00109C
:1038B000419000001C9A111D1C9105970B9B0493CD
:1038C00003946346029300230193136800935B46BD
:1038D0002A0041463000FFF768F905006AE73A061A
:1038E00006D51C9A111D1C9112681204120C28E7AF
:1038F0001C9A111D1C91126823E7462819D01C9BA5
:103900000733072293431A0008321C9204970B9A3C
:10391000039202941A685B68009201935B462A0046
:1039200041463000FFF736FC0500119B013311932F
:10393000EAE520231F43E2E7672801D0472802D1A8
:1039400080231B011F43452801D0472801D1202394
:103950001F431C9B0733072293431A0008321C9213
:1039600004970B9A039202941A685B680092019381
:103970005B462A0041463000FFF7FCF90500119B29
:1039800001331193C0E502231A003A4091463B42AD
:103990001DD001241C9B1A1D1C926F1C18785B46BD
:1039A0002A004146B0474B46002B14D1119B0133EE
:1039B00011933D00A8E5571C5B4641462020B047C7
:1039C00023003A005C1C9D42F5D81500E2E7012374
:1039D0002A000B9DF6E73A00B1460B9E06E0571C05
:1039E0005B4641462020C8472C003A00651CA64291
:1039F000F5D817004E46D9E701330A001978002997
:103A000002D0511E002AF7D152469B1A8022D200C2
:103A1000390011408946174202D0A34200D9230041
:103A200002221100394010913A4209D02A002500A3
:103A300057469A4633004E46994621E022004CE60E
:103A40002A004546A04606E0541C5B46290020207B
:103A5000B0473B0022005F1C0B999942F4D84446C2
:103A6000A8463B00250057469A4633004E469946E5
:103A700006E01D000137541C5B464146C847220042
:103A80003878002804D0002EF4D06B1E002DF0D121
:103A9000150053464E46109A002A03D1119B01335C
:103AA000119331E50B9F2A0006E0551C5B46414609
:103AB0002020B04723002A005C1C9F42F5D8150047
:103AC000ECE721233B431C9A111D1C9112680593BE
:103AD0000823049303940833029300230193009274
:103AE0005B462A0041463000FFF75FF80500119B56
:103AF0000133119308E56C1C5B462A0041462520E2
:103B0000B047119B013311932500FDE46C1C5B460B
:103B10002A004146B047119B013311932500F3E47D
:103B20000A4B9A46EEE4B2465D450DD35B465A1EFB
:103B30005B4641460020D047280013B0F0BCBB468E
:103B4000B246A946A046F0BD2A00F1E7B929001007
:103B500000B585B002900391012104480093130041
:103B60004A4202A9FFF7C0FC05B000BDBB29001006
:103B700001480421014B1847100E0020AD3B0010F6
:103B8000014B9B6818470000100E002010B5010083
:103B900018231B8814221088984710BD10B5010007
:103BA00018231B8816221088984710BDF0B5C6460A
:103BB00000B507000E0000250123984600E00135FE
:103BC000B5420AD2AC003C192068FFF7DFFF206045
:103BD0000028F4D100239846F1E7404680BCB8465F
:103BE000F0BD0000124A936F9B0815D29066D16613
:103BF000002905D0FFE7FFE7FFE7516F106F70471F
:103C000004B580210906C2175140002800D0C843DE
:103C100007F0BEFD002104BDF0B5146E556E576F60
:103C2000166FFFF7E3FF1466556657671667F0BD1A
:103C3000000000D0114A936F9B0813D210665166A2
:103C4000002905D0FFE7FFE7FFE7516F106F7047CE
:103C500004B5002801D00020C04307F099FD0021E1
:103C600004BDC046F0B5146E556E576F166FFFF762
:103C7000E5FF1466556657671667F0BD000000D073
:103C800094464A4A926F9208624601D228E0C046A2
:103C9000F0B5464E346E756E776F366F00F020F8D3
:103CA0009446424A14665566576716676246F0BDE9
:103CB00094463E4A926F9208624601D254E0C04652
:103CC000F0B53A4E346E756E776F366F00F04CF883
:103CD0009446364A14665566576716676246F0BDC5
:103CE000002B24DB11D000293EDA00B5C943404245
:103CF00000D1013100F038F8C943404200D1013110
:103D0000DB43524200D1013300BD002AEBD1002831
:103D100001D1002905D00020C90FC90701D1C04336
:103D2000410800B507F024FD0022002300BD00B5C6
:103D300000290ADBDB43524200D1013300F014F8C2
:103D4000C943404200D1013100BDC943404200D1C6
:103D50000131DB43524200D1013300F005F8DB436F
:103D6000524200D1013300BD002923D1002B18D1CC
:103D7000002A0CD0BC460D4F38667A66002100231D
:103D8000FFE7FFE7FFE77A6F386F67467047002865
:103D900001D00748010000B507F0EAFC002200232B
:103DA00000BD02000B00002000217047000000D081
:103DB000FFFFFFFF002B00D0BFE0130C28D1002A2B
:103DC000E7D080B4114F39667A66FFE7FFE730B479
:103DD000040C7B6F396F1B0423433B667A66FFE755
:103DE000FFE7FFE7C04684B27B6F3D6F1B042343B0
:103DF0003B667A66FFE7FFE7C04600232C042D0CE4
:103E00007A6F386F00196941B0BC7047000000D06C
:103E1000F0B594460025140E01D112020835140F96
:103E200001D112010435940F01D192000235D40F53
:103E300001D152000135D40B0134254F7C66254C4D
:103E40003C660E0C93B2FFE7FFE7FFE73C6F66436B
:103E5000360C7703BE467343DF0B5B04C01AB941CF
:103E6000130C7343DB18C91ACE086643360CB644EC
:103E700093B273431F0F1B01C01AB941130C734354
:103E80001F0B1B05C01AB941860D8F023E436643C6
:103E9000360C092D24DB520A7243801A7703460A36
:103EA0006643360C16235B1BDE40DF40BF196446B9
:103EB0006643821B7046043506330100D940A84092
:103EC000C01900D30131A24206D20023F0BD000088
:103ED000000000D0FFFFFFFF121B0130F3D3F1E71A
:103EE00009277F1BFE406446A2B27243801A00D2AB
:103EF0000139220C7243130C1204821A99410B00EF
:103F00007046043513370100F940A840801900D3EA
:103F10000131002B02D1A2420AD2F0BD013000D300
:103F20000131121BFAD2013BF8D1A24200D2F0BDFE
:103F3000013000D30131121BF7E7F0B51C0C00D0A3
:103F400080E00CB400251C0A04D11B02160E33437A
:103F5000120208351C0B04D11B01160F334312014A
:103F600004359C0B04D19B00960F3343920002351D
:103F7000DC0B02D192185B4101351C00971864419B
:103F80000134464F7C66464C3C660E0CFFE7FFE76B
:103F9000FFE7C0463C6F6643360C7703BE4697B2D8
:103FA0007743C01B00D20139C01B00D201399FB238
:103FB0007743C91BC91B170C77437E04FF0B801B7B
:103FC000B941CE086643360C0C2D33DBB644120BD8
:103FD0001F053A431B0B97B27743C01B00D2013930
:103FE0009FB27743C91B170C77433E043F0C801BDD
:103FF000B941860D8F023E43664329277F1BFE4051
:104000000C3D7746AF40BF1930BCA2B2ABB2724391
:104010007343801A9941220C7243130C1204801AC4
:10402000994102000B000137001BA941F9D2781E0B
:104030000021F0BD0C277F1BFE4077467F0BAF4071
:10404000FF19E0E700245D1C07D0144F7D66396638
:10405000FFE7FFE7FFE7FFE73C6F95B29EB26543DE
:104060006643401BB141150C1E0C65436643360484
:104070002F0C3E432D04401BB141994204D2020053
:104080000B0020000021F0BD01D19042F7D3801A2F
:10409000994101349942F2D3F6E70000000000D0C4
:1040A000FFFFFFFF48404140484018B4134B5B6896
:1040B000019308BD18B4114B1B68019308BD9446C9
:1040C0000F4A926F920805D2624618B40B4BDB6818
:1040D000019308BD0A4AF0B5146E556E576F166FFE
:1040E0006246FFF7F2FF064A146655665767166781
:1040F000F0BD18B4014B9B68019308BDF42C00205F
:10410000000000D0FFB550404240504059404B4065
:10411000594000E0FFB5154F4C00640D03D0BC4280
:1041200004D10C0314D80020090D09055C00640DAE
:1041300003D0BC4204D11C030AD800221B0D1B056E
:1041400001264B4009D44B4003D58B4200D182421B
:10415000FFBD9942FCD19042FFBD0B43DB180343E6
:104160001343F5D0C9434918FFBD0000FF07000005
:1041700000B5FFF7CFFF804100BDC04600B5FFF797
:10418000C9FF01D9002000BD012000BD00B5FFF727
:10419000B9FF01D9002000BD012000BD00B5FFF727
:1041A000B1FF804100BD012040054A00121804D82B
:1041B0005A00121801D800207047012070470020D3
:1041C000704700000021002805D17047C117484002
:1041D000401AFAD0C90713B5064B1B6898470CBCA8
:1041E000441CA2401005120B0349091B0905194381
:1041F000114310BDF42D00201F04000010B54C0029
:10420000620D8023D218DB00D21A5B057E2A10DDF6
:104210009E3A13DACC170903490819435242D14098
:10422000640001341532202A05DAD0400843604387
:1042300010BD002010BD0846604310BDC80FC01857
:10424000013810BD18B4024B5B6A019308BD000031
:10425000F42C002010B50148FEF790FB1CC40010A0
:1042600070B513231C78012C12D0012C12DC214BC9
:10427000214A93642148FFF789FC214B186070BDE7
:1042800020491D4A9800815001331F2BF8D9ECE7D3
:104290000023FAE71C48FFF781FC05001B48FFF7E5
:1042A0007DFC023803789B007F2B09DD12488022B9
:1042B000290000F017F9022C08D0022CDADCD6E72E
:1042C000134B144A14483221FEF7C0FA134B1A88D4
:1042D000B5231B029A4209D1114B1A88114B9A42FD
:1042E00004D1114B1A88114B9A42E6D00020FEF7F8
:1042F00045FBC04631430010F42C00204C33000035
:10430000F42D002055420010534400005346000095
:1043100034C4001068DC001088C400105438000059
:10432000D8380000494600009C380000594600007B
:1043300007B56046002800D100BE01880A0A023095
:10434000DF2AFAD1C9B2820804D302884088000467
:10435000104300E00068024A5050039007BD00007F
:10436000F42C002051434343C9188C46110C83B2EE
:104370004B4310B4040C614392B280B25043624389
:104380001C041B0C001910BC59411304120CC0185A
:10439000514161447047000010B50148FEF7EEFA44
:1043A00090CF001070B513231E781848FFF7F6FB66
:1043B0000500012E11D0012E09DDAB1E1B789B00DC
:1043C0007F2B1DDD12488022290000F08BF8114858
:1043D000FFF7DCFB104B186070BD0D48542229001C
:1043E00000F080F8002300E001331F2BE3D8084AD7
:1043F0009C00A258002AF7D10849054AA150F3E7CA
:10440000074B084A08484221FEF720FA53460000AD
:10441000F82D00204C330000F42D002099430010AB
:10442000CCC400107CDC001000C5001010B50028C2
:1044300004D04018034B984200D810BD0248FEF744
:104440009DFAC0460000042040C5001070B505006C
:10445000084E300007F004FA280006F0B7FA04000E
:10446000300007F07DF929002000FFF7DFFF200072
:1044700070BDC046EC13002070B504000D00094E5D
:10448000300007F0EDF92900200006F03FFA0400A3
:10449000300007F065F929002000FFF7C7FF200072
:1044A00070BDC046EC13002070B50400054D280017
:1044B00007F0D6F9200006F093FA280007F050F92B
:1044C00070BDC046EC13002001480421014B184781
:1044D000200E0020AD3B0010014B1B681847000068
:1044E000200E0020014B5B6818470000200E0020C2
:1044F000084B5B6A994209D8064A926A824207D2FF
:10450000994201D0012002E0002000E00020704725
:104510000120FCE70040054010B503000800110031
:104520001B68984710BD0000F8B507000D00160085
:10453000437D002B02D0002400200CE00368110012
:10454000280098472DE03B7D10E03B68154802218C
:104550009847601C0134B44214DA002CF3DD2B19A7
:10456000013B1B780D3B5A425341DBB22A5D0A2ABC
:10457000F0D1002BEED1A042E7DA3B68211A2818CF
:104580009847E2E7B04203DA3B68311A28189847A7
:10459000002E06DDAD19013D2B780D3B5A425341EB
:1045A0003B75F8BDC4DC001070B505000368002B36
:1045B00016D00C4B1C6805E0290004C92000FFF749
:1045C000B3FF2469002C09D02368002BF9D0064BD7
:1045D0001B68002BF0D0A342F3D1EDE700232B6042
:1045E00070BDC04698280020A428002070B50500A2
:1045F0000C000B68802B05D023685A1C2260E4183D
:10460000257170BD0800FFF7CFFFF5E710B5002B4F
:1046100002DB0260436010BD024B034A03483F21A6
:10462000FEF714F94CBD0010C8DC001068BD001086
:1046300010B582B00400FDF729FB02000B006846AC
:10464000FFF7E4FF009A019B22606360200002B044
:1046500010BD000070B582B0060014001D00FA22E3
:104660009200002306980021FFF77CFE02000B0059
:1046700012196B41002B09DB6846FFF7C7FF009A50
:10468000019B32607360300002B070BD0122524263
:10469000004BF1E7FFFFFF7F30B585B004000D0050
:1046A00002A8FFF7C5FF029A039B00952000FFF7C1
:1046B000D1FF200005B030BDF8B5CE46474680B5E5
:1046C00007000E00914698461BE0A368002B04D01B
:1046D000310038009847002818DC2469002C06D0E7
:1046E0000C4D2D68002DF0D0A542F6D1EDE74846DF
:1046F0004146FFF7FDFE002806D101200021FDF70D
:10470000E5FA054B1C68E9E701204042C0BCB94608
:10471000B046F8BDA42800209828002000B583B03A
:10472000FA2189006846FFF7B7FF009A019B02480B
:1047300007F066F803B000BDF413002010B502487E
:1047400007F00EF810BDC046F4130020F0B5CE46B9
:10475000474680B583B006000D0090461C00FFF769
:10476000DDFF81466B1C05D0002C08D0194F1A4B79
:104770001C6807E0300006F007FE0500F4E7174F5D
:10478000F5E72469002C17D02368002BF9D0144BCF
:104790001B68002B01D0A342F3D12A003100200076
:1047A000B8474346002BECD06B46D91D0A230B704B
:1047B00001222000B847E4E74B46002B07D16B1ECF
:1047C0009D41E8B203B0C0BCB946B046F0BDFFF7AA
:1047D000B5FFF4E71945001098280020294500107E
:1047E000A428002010B582B004006B46D81D0470C8
:1047F000002300220121FFF7A9FF200002B010BD15
:10480000094A01E010331A001368002B08D08342D4
:10481000F8D1002907D1036913600023036102E086
:10482000002900D0106070479828002010B5064B72
:104830001C6801E098472469002C03D06368002BB2
:10484000F8D1F8E710BDC0469828002070B50500E3
:1048500006F09AFD04000023012201002800FFF762
:1048600075FFFFF7E3FF200070BD000070B5A2B038
:1048700004000E00FFF752FF0500002301930A48D1
:104880003300220001A9FFF763F9040001A8FFF734
:104890008BFEFFF7CBFF002D02D1200022B070BDB0
:1048A000FFF74CFFF9E7C046ED4500100FB400B527
:1048B00083B004A901C90191FFF7D8FF03B008BC78
:1048C00004B0184710B500F021F900F0E1FA01201A
:1048D00010BD000000B583B00A4B1A685B68012167
:1048E00001A8FFF7E9FE002803DB012803D101AB93
:1048F000187803B000BD044B044A9A2104484900CB
:10490000FDF7A4FFC8D9001094C50010B4DC001056
:10491000A0C5001010B582B00C00144BC3185A4249
:104920005341134A5B009B5E8B4204D06B46DA1DF9
:104930001470002115E06B46DA1D0D231370002161
:104940000029F3D183699B06FCD4137803600131FD
:104950000132F5E783699B06FCD4137803600131CB
:1049600001320029F6D002B010BDC0460080FCBF65
:10497000142F002082B000226B46D91D06E0836907
:10498000DB06FCD403680B7001320131002AF6D03B
:104990006B46D87902B0704770B506000D00002450
:1049A00005E0315D034B1868FFF7B4FF0134AC42FA
:1049B000F7DB70BD182F0020F8B506000D000027AA
:1049C00005E07C1CF719FFF7D5FF38702700AF42D0
:1049D00004DA0E4A10688269D206F2D50C4A1268CF
:1049E000002A0CD0094A126850219163100034301B
:1049F000526B183911408022520102431160002F7E
:104A000001D03800F8BD033FFBE7C046182F002057
:104A1000FC1E002010B5064B1B68002B06D0054A73
:104A2000126800219163044A1068984710BDC0467F
:104A3000FC1E0020182F0020041F002070B5050068
:104A40000E001C4B1A681C4BD31859424B411433AF
:104A50001C0000281ED0194B1B68002B04D0174BDC
:104A60001D60174B1E6070BD16492000FBF7BEFF8E
:104A700001212000FBF790FF0E4B1B6850229A6328
:104A8000190034315B6B183A1A4080235B010B43E9
:104A90001A60E4E7094B1B68002BE0D00023936306
:104AA00000212000FBF778FF06492000FCF7D0F832
:104AB000D5E7C046182F00200080FCBFFC1E002058
:104AC000041F0020154A001070B50D001C000D4B8E
:104AD0001860002A0BDA002C0EDA0A4B186829003D
:104AE000FDF732FC08480121FFF78AFE70BD022164
:104AF0001000FBF73FFDEEE702212000FBF73AFD37
:104B0000EBE7C046182F0020300E002010B5064BF2
:104B10001B78064B1B78E12101230022490204483F
:104B2000FFF7D2FF10BDC04654590410505904106D
:104B30000040034070470000014B00221A7070478C
:104B4000382F00204B79FF2B0CD18B79002B0BD108
:104B5000CB79012B0AD1082A0AD98A78054B1A7019
:104B6000092000E0002070470020FCE70020FAE761
:104B70000020F8E7382F00200120704770B50400AE
:104B80000D000348FFF702F80300290020009847B2
:104B90005542000010B5012926D1117953791B0225
:104BA0000B43124909788B4201D000201DE0537855
:104BB000012B03D0022B10D0002016E09178D3787F
:104BC0001B021943DB0506D54B0A012098407F23C1
:104BD0001940FFF7D3FF0020F9E7642200210020ED
:104BE000FDF7DAFD012000E0012010BD382F002084
:104BF0000123037000487047F4DC001010B50A78F8
:104C00004B781B0213438A7812041A43CB781B0695
:104C100013439622D200934200D010BD0021080019
:104C2000FFF7ACFF024B1860024B19607047C0469B
:104C3000001F0020081F002010B5002B02DB0260BF
:104C4000436010BD024B034A03483F21FDF7FEFDC0
:104C50004CBD001028DD001068BD001010B582B0FA
:104C60000400FDF713F802000B006846FFF7E4FFAD
:104C7000009A019B22606360200002B010BD00001A
:104C800070B582B0060014001D00FA2292000023C5
:104C900006980021FFF766FB02000B0012196B411A
:104CA000002B09DB6846FFF7C7FF009A019B3260C3
:104CB0007360300002B070BD01225242004BF1E738
:104CC000FFFFFF7F30B585B004000D0002A8FFF79D
:104CD000C5FF029A039B00952000FFF7D1FF20003B
:104CE00005B030BD10B582B00400049805991218C3
:104CF0004B41002B09DB6846FFF79EFF009A019BA2
:104D000022606360200002B010BD01225242014BBC
:104D1000F1E7C046FFFFFF7F10B5024B1878FBF7A5
:104D200043FE10BD392F00200268EFF3108172B6E8
:104D30001368002BFCD0BFF35F8F41607047000009
:104D400070B50F4B1B68002B16D00D4C2000FFF7E1
:104D5000EBFF0C4B00221A7021686368BFF35F8F72
:104D60000A6083F3108800240025074B1878FBF7AE
:104D70001BFE2000290070BDFA24A4000025F4E7E2
:104D8000CC2C00203A2F0020392F0020F0B587B01E
:104D9000040016001D000EAB1F7804A8FFF75EFF8D
:104DA000049A059B0096019504A8FFF79BFF049ABF
:104DB000059B02970D9901910C9900912000FCF739
:104DC00011FD07B0F0BDF0B5C64600B584B00500D2
:104DD000884616001F000AAB1C78FCF78FFC029473
:104DE000019700962A004346FFF7D0FF04B080BC2D
:104DF000B846F0BD10B582B01948002106F0E0FCBD
:104E0000002822D1174B1B68002B26D0154C200000
:104E1000FFF78AFF144A137801214B40DBB20121CE
:104E2000117021686268BFF35F8F0020086082F311
:104E30001088002B11D00D4A012300930023FA2083
:104E400080000021FFF7BFFF07E001200021404262
:104E500001F094F8024806F083FC02B010BDC04691
:104E6000FC2E0020CC2C00203A2F0020414D0010B9
:104E700010B5054B1868002804D0044B19680022AF
:104E800000F0A6FD10BDC046001F0020081F002036
:104E900010B582B0D0231B061C68FCF72FFCFCF772
:104EA000E1FDA0422CD1234B1B7801F035FD2248B7
:104EB000FCF7BBF80120FCF735F8204C20702049A6
:104EC000FF231840FBF792FD20780121FBF764FDDA
:104ED0000520FBF779FD041E18D01A490022052091
:104EE000FBF7AEFDFBF7A8FC0100174B1800FCF721
:104EF000B9F816480121FFF783FC200002B010BD6D
:104F0000134B144A1448B221FDF7A0FC134A0123A5
:104F100000930023FA2080000021FFF754FFC443D0
:104F2000E40F094808220021FFF7D6FA002CE4D04C
:104F3000DFE7C04658590410FC2E0020392F00200E
:104F4000F54D0010194D0010CC2C0020480E00200B
:104F5000ECBC001018DD001004C60010414D00101C
:104F600010B5002001F002FA10BD000030B583B08A
:104F700004000D00FFF7F4FF002830D0002001F0FE
:104F800011FA00282ED0FA2189006846FFF79AFE10
:104F9000009A019B164806F033FC002825D0FFF745
:104FA000DFFF002804D0002001F0FCF900280CD11C
:104FB00001200021404200F0E1FF032464420C483C
:104FC00006F0CEFB200003B030BD2A0021000020F7
:104FD00001F0F4F9041EF2D103246442EFE7032444
:104FE0006442EFE703246442ECE703246442E9E708
:104FF000FC2E0020F0B5C64600B582B080460D00FC
:10500000FA2189006846FFF75DFE009A019B2C4853
:1050100006F0F6FB002803D102B080BCB846F0BD14
:10502000FFF79EFF002849D1264B00200021186081
:105030005960234806F094FBEEE70120002140422E
:1050400000F09CFF002001F0CDF9FFF789FF002858
:10505000EFD0002001F03EFA002820D0AC42E8DA80
:105060002E1B002001F036FA0200864200DC3200DE
:10507000002AE2D043461919002001F00FFA060079
:1050800001200021404200F079FF002001F0AAF940
:10509000A419FCF7FBFD0B4B18605960DEE7FCF729
:1050A000F5FD084B1E685F68074A002392197B4193
:1050B0009942BED8D2D19042D0D9BAE70024CDE7E8
:1050C000FC2E00206815002020A107000048704732
:1050D000ACDD00100048704758DD001010B504002A
:1050E000154B1B78002B0ED0002C11D1134B144AFA
:1050F0005A80012301335B009BB21048C02292000A
:105100001343038010BD0C48112100F02DF8EBE78C
:10511000052C0ED80B4BA400E4580023122BE9D821
:10512000E15C0029E6D00133044A58008152DBB229
:10513000F4E70020E6E7C0461C2F0020702800207E
:105140000904000040DD001010B5024800F03AF8F4
:1051500010BDC046EC2C002010B502490822FFF714
:10516000C1F910BDEC2C002010B5002901D000239E
:105170000AE0104B104A11481F31FDF767FB00226F
:105180000DE03732C25401334A1E9A420ED90F2B1A
:105190000CD85A080A4CA45CDA07F0D40422144153
:1051A0000F222240092AECDC3032EBE7C018002342
:1051B000037010BD84C60010C0DD00108CC6001046
:1051C000EC2C002030B589B0040004AD0D22002184
:1051D0002800FFF781F90D2200216846FFF77CF9CE
:1051E0004B232B700D226946280006F0B1FA0023EC
:1051F00004E05A1D69468A5CE2540133072BF8DD4E
:1052000009B030BD02007F201040D2094000801854
:105210004001014BC0187047AC28002010B5038B2B
:105220003F333F229343022915D0124C2268C260BB
:10523000D31823609C0610D10F4C62406340802439
:105240006401A3420FD88906114380231B060B4338
:105250004268136010BD5B00E7E7084B084A094845
:105260005421FDF7F3FA084B054A06485621FDF78D
:10527000EDFAC046B02C00200000105020C80010ED
:1052800030DE001050C80010A0C80010F8B50500AE
:105290000E001400FFF7B6FF7F232B40EF09857047
:1052A0007A427A4142700022C2700683C476012F8E
:1052B0000DD0DA0012498C46624482608268002177
:1052C0001160002B09D143600E4BC360F8BDDA00BA
:1052D0000D498C4662448260F0E7012F09D0013B02
:1052E000DB000A4A9446634443602100FFF796FFBF
:1052F000ECE7013BDB00064A944663444360F4E775
:105300008400105000011050800010500C0010500C
:105310000800105070B584B006000D0014000C2277
:10532000002101A8FFF7D8F86B461E7103236A46D7
:1053300053710295210001A806F052FA04B070BD25
:1053400070B50C001500FFF75DFF2A00210000F08A
:105350000DF970BD10B5002804D101210520FBF71F
:105360001BFB10BD034B044AD52104484900FDF73F
:105370006DFAC046E8C8001020DE001050C80010CA
:1053800010B5002805D1002200218020FFF7D8FFAA
:1053900010BD034B034ADB2103484900FDF756FAD1
:1053A000E8C8001010DE001050C80010024B802228
:1053B0005202DA647047C0460020115070B5041ED6
:1053C00026D100F0ADF8164D0C23AB671549FF222E
:1053D0000520FBF735FB144840220021FFF77CF83D
:1053E000002240210020FFF751FF002240218020B1
:1053F000FFF74CFF06F0FCF901232B6480239B058B
:10540000EB649023094AEA502000FFF7CFFF70BDFC
:10541000074B084A86210848FF31FDF717FAC046B6
:1054200000001150DD060020AC28002010D0010043
:10543000E8C8001044DE001050C800100B785B066E
:1054400002D14B78052B00D070478A78014B1A6047
:10545000FAE7C0460000115010B50A0000280DD12F
:105460008878097953791B020B435B05590DD27873
:105470009207920FFFF70AFF012010BD034B044A69
:10548000FC210448FF31FDF7E1F9C046E8C80010EF
:1054900000DE001050C8001010B506F0A9F910BDCC
:1054A00010B50400080011001A00002C03D1FFF70A
:1054B00047FF012010BD034B034A04480449FDF790
:1054C000C5F9C046E8C80010F0DD001050C8001053
:1054D0000A02000010B508004B0605D1CB09012BCC
:1054E0000AD00222054B9A66FFF78CFE8022120139
:1054F000002106F0ADF910BD0122F3E700201150A4
:1055000010B508004B0600D110BDFFF77BFE00234D
:10551000C3700022014906F09BF9F5E7FFF7FFFF92
:1055200010B580235B040C4A13600C4A13600C4BCB
:105530009A6880235B049343F9D10A4C9C22002192
:105540002000FEF7C9FF8022520100210648FEF725
:10555000C3FF0923636710BD00E0004000F0004076
:1055600000C00040000011500000105070B5040051
:105570000D001600837E002B17D1A6820023E38244
:105580000133A3762561200006F0D2F8002804D06C
:10559000094A902380218902D150200006F048F961
:1055A000002805D00123237770BD06F049F9E4E710
:1055B000200006F02DF9F7E70020115070B5050026
:1055C00000240CE062001219D200184B1B689B18D3
:1055D000002B2AD05B68280098470134E4B2144BB2
:1055E0001B78A34210D3134A002A0BD0A342E9D858
:1055F000E31ADBB2002B18D15A00D318DB000E4A95
:105600009B18E7E72300F5E70C4C5322002120000C
:10561000FEF762FFE01C1022FF21FEF75DFF200075
:1056200013302022FF21FEF757FF70BD78190020AC
:10563000322F0020F14B0010ECDE0010A01C0020E7
:105640000268EFF3108172B61368002BFCD0BFF331
:105650005F8F4160704710B5FFF7B0FF00F0E4FDC9
:1056600010BD70B505000C001600C86800F0E6FD1E
:10567000E368320001212800984770BDF0B5DE468E
:1056800057464E46C0B582B000900139C8B2FFF708
:1056900021FD002800D18EE043789A46022B00D0ED
:1056A0008BE0C5796C1101224A4B14402401197812
:1056B0001026B14321431970AD112A405201C9B2DD
:1056C0002024A1430A431A70070009378278C3785F
:1056D0001B021343C418A74266D27B780B2B09D058
:1056E00001239B467B78042B6ED1E31B9BB299462A
:1056F000002538E0FB789B463B78FF18F2E76B000B
:105700005B19DB00344A1668F618002E3DD10020E4
:1057100054E02B0032E0B268304B9A4242D1D3467B
:1057200040E02C49CB18DD700132D2B2934509D943
:10573000BB789B18DBB22749C918C978FF29F0D07C
:1057400000203BE026482B00019E3200390001F08A
:105750006FF9B4466744234B1B78AB42BBD20020A1
:105760002CE00135EDB21F4B1B78AB42F3D31E4A40
:10577000002ACED0AB42C2D8EB1ADBB2002B25D127
:105780005E00F618F600194BF618B3684A46390061
:105790000098984701900828E3D98145E1D35B46FA
:1057A000012BB8D00022C1E7114B002B10D000E034
:1057B00000BF012002E0002000E0002002B0E0BCB9
:1057C000BB46B246A946F0BD0020F7E70020F5E74A
:1057D0000120F3E7A01C002078190020F1650010DB
:1057E000B31C0020322F0020F14B0010ECDE001023
:1057F0000000000070B505000C00CB7888780F2BF6
:1058000050D89A002E498A589746FFF75FFC02004D
:1058100012232100280000F0D3FC44E0294B002B88
:1058200042D000E000BF021E40D08178C3781B0246
:105830000B432100280000F0C3FC34E0022B09D008
:10584000214B002B34D000E000BF0200002A05D11C
:10585000002028E0FFF73EFC0200F7E79178D378BC
:105860001B020B432100280000F0AAFC1BE0237957
:10587000617909021943FFF731FC021E1AD003783F
:105880002100280000F09CFC0DE0104B002B13D0F1
:1058900000E000BF021E11D003782100280000F0B4
:1058A0008FFC00E0002070BD0020FCE70020FAE73C
:1058B0000020F8E70020F6E70020F4E70020F2E7F8
:1058C00060DE00100000000000000000000000008A
:1058D000024B5878431E9841C0B27047A01C00206C
:1058E000024B18784007C00F7047C046A01C00202C
:1058F000034B1878FF38431E9841C0B27047C0462A
:10590000840E002070B50400FFF7F2FF061E01D0E0
:10591000300070BD244853220021FEF7DDFD234DE9
:105920002800FBF782FB224B1D60224D2800FBF76D
:10593000A3FB143D280001F0CFFB1F4B1D601F4B44
:10594000002B04D01E48FFF753F91E4B18600025AA
:105950000BE06A005219D2001A4B1B689B18002BEF
:10596000D6D01B6898470135EDB2154B1B78AB427A
:1059700010D3124A002A0BD0AB42EAD8EB1ADBB2A2
:10598000002BC5D15A00D318DB000F4A9B18E8E75B
:105990002B00F5E70D4B1C702000FFF70FFD2000DA
:1059A000FFF7D8FC0126B3E7A01C0020581C0020FC
:1059B000F41C00207C0E0020F81C0020F14B00108D
:1059C000322F002078190020ECDE0010840E002019
:1059D000F0B585B007000E00150001AC0C220021C7
:1059E0002000FEF779FD08236370029703962900D3
:1059F000200005F0F5FE05B0F0BD000070B50C000C
:105A0000094B1D788B7870221A4201D0002070BD9E
:105A1000064B9978200000F0CFFF0028F7D0210036
:105A20002800FFF719FDF2E7840E0020A01C0020DB
:105A3000F8B5CE46474680B581460C0017001E00DB
:105A4000089B9846002504E0099A13702378E4180F
:105A50000135AF4214DD6378052B16D1E178890753
:105A6000890FB14213D121004846FFF7C7FF002834
:105A700007D0A378DA09012AE6D042461370E5E799
:105A80000120C0BCB946B046F8BD0020F9E70020AF
:105A9000F7E7000010B57F200840C9094000401812
:105AA0003030044BC0180330034B196800F040FF3E
:105AB00010BDC046A01C0020F41C002010B57F20A3
:105AC0000840C909400040183030044BC01803306A
:105AD000034B196800F054FF10BDC046A01C002005
